{
  "_format": "hh-sol-artifact-1",
  "contractName": "IdentityRegistry",
  "sourceName": "contracts/core/IdentityRegistry.sol",
  "abi": [
    {
      "inputs": [],
      "stateMutability": "nonpayable",
      "type": "constructor"
    },
    {
      "inputs": [
        {
          "internalType": "address",
          "name": "agentAddress",
          "type": "address"
        }
      ],
      "name": "AgentAlreadyRegistered",
      "type": "error"
    },
    {
      "inputs": [
        {
          "internalType": "uint256",
          "name": "agentId",
          "type": "uint256"
        }
      ],
      "name": "AgentNotFound",
      "type": "error"
    },
    {
      "inputs": [
        {
          "internalType": "address",
          "name": "sender",
          "type": "address"
        },
        {
          "internalType": "uint256",
          "name": "tokenId",
          "type": "uint256"
        },
        {
          "internalType": "address",
          "name": "owner",
          "type": "address"
        }
      ],
      "name": "ERC721IncorrectOwner",
      "type": "error"
    },
    {
      "inputs": [
        {
          "internalType": "address",
          "name": "operator",
          "type": "address"
        },
        {
          "internalType": "uint256",
          "name": "tokenId",
          "type": "uint256"
        }
      ],
      "name": "ERC721InsufficientApproval",
      "type": "error"
    },
    {
      "inputs": [
        {
          "internalType": "address",
          "name": "approver",
          "type": "address"
        }
      ],
      "name": "ERC721InvalidApprover",
      "type": "error"
    },
    {
      "inputs": [
        {
          "internalType": "address",
          "name": "operator",
          "type": "address"
        }
      ],
      "name": "ERC721InvalidOperator",
      "type": "error"
    },
    {
      "inputs": [
        {
          "internalType": "address",
          "name": "owner",
          "type": "address"
        }
      ],
      "name": "ERC721InvalidOwner",
      "type": "error"
    },
    {
      "inputs": [
        {
          "internalType": "address",
          "name": "receiver",
          "type": "address"
        }
      ],
      "name": "ERC721InvalidReceiver",
      "type": "error"
    },
    {
      "inputs": [
        {
          "internalType": "address",
          "name": "sender",
          "type": "address"
        }
      ],
      "name": "ERC721InvalidSender",
      "type": "error"
    },
    {
      "inputs": [
        {
          "internalType": "uint256",
          "name": "tokenId",
          "type": "uint256"
        }
      ],
      "name": "ERC721NonexistentToken",
      "type": "error"
    },
    {
      "inputs": [],
      "name": "InvalidAgentDomain",
      "type": "error"
    },
    {
      "inputs": [],
      "name": "InvalidContentHash",
      "type": "error"
    },
    {
      "inputs": [],
      "name": "InvalidTokenURI",
      "type": "error"
    },
    {
      "inputs": [
        {
          "internalType": "uint256",
          "name": "agentId",
          "type": "uint256"
        },
        {
          "internalType": "address",
          "name": "caller",
          "type": "address"
        }
      ],
      "name": "NotAgentOwner",
      "type": "error"
    },
    {
      "inputs": [
        {
          "internalType": "address",
          "name": "owner",
          "type": "address"
        }
      ],
      "name": "OwnableInvalidOwner",
      "type": "error"
    },
    {
      "inputs": [
        {
          "internalType": "address",
          "name": "account",
          "type": "address"
        }
      ],
      "name": "OwnableUnauthorizedAccount",
      "type": "error"
    },
    {
      "inputs": [],
      "name": "ReentrancyGuardReentrantCall",
      "type": "error"
    },
    {
      "anonymous": false,
      "inputs": [
        {
          "indexed": true,
          "internalType": "uint256",
          "name": "agentId",
          "type": "uint256"
        },
        {
          "indexed": false,
          "internalType": "string",
          "name": "newAgentDomain",
          "type": "string"
        },
        {
          "indexed": false,
          "internalType": "bytes32",
          "name": "newContentHash",
          "type": "bytes32"
        }
      ],
      "name": "AgentCardUpdated",
      "type": "event"
    },
    {
      "anonymous": false,
      "inputs": [
        {
          "indexed": true,
          "internalType": "uint256",
          "name": "agentId",
          "type": "uint256"
        },
        {
          "indexed": true,
          "internalType": "address",
          "name": "agentAddress",
          "type": "address"
        },
        {
          "indexed": false,
          "internalType": "string",
          "name": "agentDomain",
          "type": "string"
        },
        {
          "indexed": false,
          "internalType": "bytes32",
          "name": "contentHash",
          "type": "bytes32"
        }
      ],
      "name": "AgentRegistered",
      "type": "event"
    },
    {
      "anonymous": false,
      "inputs": [
        {
          "indexed": true,
          "internalType": "uint256",
          "name": "agentId",
          "type": "uint256"
        },
        {
          "indexed": false,
          "internalType": "bool",
          "name": "isActive",
          "type": "bool"
        }
      ],
      "name": "AgentStatusChanged",
      "type": "event"
    },
    {
      "anonymous": false,
      "inputs": [
        {
          "indexed": true,
          "internalType": "uint256",
          "name": "agentId",
          "type": "uint256"
        },
        {
          "indexed": true,
          "internalType": "address",
          "name": "from",
          "type": "address"
        },
        {
          "indexed": true,
          "internalType": "address",
          "name": "to",
          "type": "address"
        }
      ],
      "name": "AgentTransferred",
      "type": "event"
    },
    {
      "anonymous": false,
      "inputs": [
        {
          "indexed": true,
          "internalType": "address",
          "name": "owner",
          "type": "address"
        },
        {
          "indexed": true,
          "internalType": "address",
          "name": "approved",
          "type": "address"
        },
        {
          "indexed": true,
          "internalType": "uint256",
          "name": "tokenId",
          "type": "uint256"
        }
      ],
      "name": "Approval",
      "type": "event"
    },
    {
      "anonymous": false,
      "inputs": [
        {
          "indexed": true,
          "internalType": "address",
          "name": "owner",
          "type": "address"
        },
        {
          "indexed": true,
          "internalType": "address",
          "name": "operator",
          "type": "address"
        },
        {
          "indexed": false,
          "internalType": "bool",
          "name": "approved",
          "type": "bool"
        }
      ],
      "name": "ApprovalForAll",
      "type": "event"
    },
    {
      "anonymous": false,
      "inputs": [
        {
          "indexed": false,
          "internalType": "uint256",
          "name": "_fromTokenId",
          "type": "uint256"
        },
        {
          "indexed": false,
          "internalType": "uint256",
          "name": "_toTokenId",
          "type": "uint256"
        }
      ],
      "name": "BatchMetadataUpdate",
      "type": "event"
    },
    {
      "anonymous": false,
      "inputs": [
        {
          "indexed": false,
          "internalType": "uint256",
          "name": "_tokenId",
          "type": "uint256"
        }
      ],
      "name": "MetadataUpdate",
      "type": "event"
    },
    {
      "anonymous": false,
      "inputs": [
        {
          "indexed": true,
          "internalType": "address",
          "name": "previousOwner",
          "type": "address"
        },
        {
          "indexed": true,
          "internalType": "address",
          "name": "newOwner",
          "type": "address"
        }
      ],
      "name": "OwnershipTransferred",
      "type": "event"
    },
    {
      "anonymous": false,
      "inputs": [
        {
          "indexed": true,
          "internalType": "address",
          "name": "from",
          "type": "address"
        },
        {
          "indexed": true,
          "internalType": "address",
          "name": "to",
          "type": "address"
        },
        {
          "indexed": true,
          "internalType": "uint256",
          "name": "tokenId",
          "type": "uint256"
        }
      ],
      "name": "Transfer",
      "type": "event"
    },
    {
      "inputs": [
        {
          "internalType": "address",
          "name": "to",
          "type": "address"
        },
        {
          "internalType": "uint256",
          "name": "tokenId",
          "type": "uint256"
        }
      ],
      "name": "approve",
      "outputs": [],
      "stateMutability": "nonpayable",
      "type": "function"
    },
    {
      "inputs": [
        {
          "internalType": "address",
          "name": "owner",
          "type": "address"
        }
      ],
      "name": "balanceOf",
      "outputs": [
        {
          "internalType": "uint256",
          "name": "",
          "type": "uint256"
        }
      ],
      "stateMutability": "view",
      "type": "function"
    },
    {
      "inputs": [
        {
          "internalType": "uint256",
          "name": "agentId",
          "type": "uint256"
        }
      ],
      "name": "getAgent",
      "outputs": [
        {
          "components": [
            {
              "internalType": "uint256",
              "name": "agentId",
              "type": "uint256"
            },
            {
              "internalType": "address",
              "name": "agentAddress",
              "type": "address"
            },
            {
              "internalType": "string",
              "name": "agentDomain",
              "type": "string"
            },
            {
              "internalType": "bytes32",
              "name": "contentHash",
              "type": "bytes32"
            },
            {
              "internalType": "uint256",
              "name": "registrationTime",
              "type": "uint256"
            },
            {
              "internalType": "bool",
              "name": "isActive",
              "type": "bool"
            }
          ],
          "internalType": "struct IERC8004Identity.AgentInfo",
          "name": "",
          "type": "tuple"
        }
      ],
      "stateMutability": "view",
      "type": "function"
    },
    {
      "inputs": [
        {
          "internalType": "address",
          "name": "agentAddress",
          "type": "address"
        }
      ],
      "name": "getAgentByAddress",
      "outputs": [
        {
          "components": [
            {
              "internalType": "uint256",
              "name": "agentId",
              "type": "uint256"
            },
            {
              "internalType": "address",
              "name": "agentAddress",
              "type": "address"
            },
            {
              "internalType": "string",
              "name": "agentDomain",
              "type": "string"
            },
            {
              "internalType": "bytes32",
              "name": "contentHash",
              "type": "bytes32"
            },
            {
              "internalType": "uint256",
              "name": "registrationTime",
              "type": "uint256"
            },
            {
              "internalType": "bool",
              "name": "isActive",
              "type": "bool"
            }
          ],
          "internalType": "struct IERC8004Identity.AgentInfo",
          "name": "",
          "type": "tuple"
        }
      ],
      "stateMutability": "view",
      "type": "function"
    },
    {
      "inputs": [
        {
          "internalType": "address",
          "name": "owner",
          "type": "address"
        }
      ],
      "name": "getAgentIdByAddress",
      "outputs": [
        {
          "internalType": "uint256",
          "name": "",
          "type": "uint256"
        }
      ],
      "stateMutability": "view",
      "type": "function"
    },
    {
      "inputs": [
        {
          "internalType": "uint256",
          "name": "tokenId",
          "type": "uint256"
        }
      ],
      "name": "getApproved",
      "outputs": [
        {
          "internalType": "address",
          "name": "",
          "type": "address"
        }
      ],
      "stateMutability": "view",
      "type": "function"
    },
    {
      "inputs": [
        {
          "internalType": "address",
          "name": "agentAddress",
          "type": "address"
        }
      ],
      "name": "hasAgent",
      "outputs": [
        {
          "internalType": "bool",
          "name": "",
          "type": "bool"
        }
      ],
      "stateMutability": "view",
      "type": "function"
    },
    {
      "inputs": [
        {
          "internalType": "address",
          "name": "owner",
          "type": "address"
        },
        {
          "internalType": "address",
          "name": "operator",
          "type": "address"
        }
      ],
      "name": "isApprovedForAll",
      "outputs": [
        {
          "internalType": "bool",
          "name": "",
          "type": "bool"
        }
      ],
      "stateMutability": "view",
      "type": "function"
    },
    {
      "inputs": [
        {
          "internalType": "uint256",
          "name": "offset",
          "type": "uint256"
        },
        {
          "internalType": "uint256",
          "name": "limit",
          "type": "uint256"
        }
      ],
      "name": "listAgents",
      "outputs": [
        {
          "components": [
            {
              "internalType": "uint256",
              "name": "agentId",
              "type": "uint256"
            },
            {
              "internalType": "address",
              "name": "agentAddress",
              "type": "address"
            },
            {
              "internalType": "string",
              "name": "agentDomain",
              "type": "string"
            },
            {
              "internalType": "bytes32",
              "name": "contentHash",
              "type": "bytes32"
            },
            {
              "internalType": "uint256",
              "name": "registrationTime",
              "type": "uint256"
            },
            {
              "internalType": "bool",
              "name": "isActive",
              "type": "bool"
            }
          ],
          "internalType": "struct IERC8004Identity.AgentInfo[]",
          "name": "",
          "type": "tuple[]"
        }
      ],
      "stateMutability": "view",
      "type": "function"
    },
    {
      "inputs": [],
      "name": "name",
      "outputs": [
        {
          "internalType": "string",
          "name": "",
          "type": "string"
        }
      ],
      "stateMutability": "view",
      "type": "function"
    },
    {
      "inputs": [],
      "name": "owner",
      "outputs": [
        {
          "internalType": "address",
          "name": "",
          "type": "address"
        }
      ],
      "stateMutability": "view",
      "type": "function"
    },
    {
      "inputs": [
        {
          "internalType": "uint256",
          "name": "tokenId",
          "type": "uint256"
        }
      ],
      "name": "ownerOf",
      "outputs": [
        {
          "internalType": "address",
          "name": "",
          "type": "address"
        }
      ],
      "stateMutability": "view",
      "type": "function"
    },
    {
      "inputs": [
        {
          "internalType": "string",
          "name": "agentDomain",
          "type": "string"
        },
        {
          "internalType": "bytes32",
          "name": "contentHash",
          "type": "bytes32"
        },
        {
          "internalType": "string",
          "name": "tokenURI",
          "type": "string"
        }
      ],
      "name": "registerAgent",
      "outputs": [
        {
          "internalType": "uint256",
          "name": "agentId",
          "type": "uint256"
        }
      ],
      "stateMutability": "nonpayable",
      "type": "function"
    },
    {
      "inputs": [],
      "name": "renounceOwnership",
      "outputs": [],
      "stateMutability": "nonpayable",
      "type": "function"
    },
    {
      "inputs": [
        {
          "internalType": "address",
          "name": "from",
          "type": "address"
        },
        {
          "internalType": "address",
          "name": "to",
          "type": "address"
        },
        {
          "internalType": "uint256",
          "name": "tokenId",
          "type": "uint256"
        }
      ],
      "name": "safeTransferFrom",
      "outputs": [],
      "stateMutability": "nonpayable",
      "type": "function"
    },
    {
      "inputs": [
        {
          "internalType": "address",
          "name": "from",
          "type": "address"
        },
        {
          "internalType": "address",
          "name": "to",
          "type": "address"
        },
        {
          "internalType": "uint256",
          "name": "tokenId",
          "type": "uint256"
        },
        {
          "internalType": "bytes",
          "name": "data",
          "type": "bytes"
        }
      ],
      "name": "safeTransferFrom",
      "outputs": [],
      "stateMutability": "nonpayable",
      "type": "function"
    },
    {
      "inputs": [
        {
          "internalType": "uint256",
          "name": "agentId",
          "type": "uint256"
        },
        {
          "internalType": "bool",
          "name": "isActive",
          "type": "bool"
        }
      ],
      "name": "setAgentStatus",
      "outputs": [],
      "stateMutability": "nonpayable",
      "type": "function"
    },
    {
      "inputs": [
        {
          "internalType": "address",
          "name": "operator",
          "type": "address"
        },
        {
          "internalType": "bool",
          "name": "approved",
          "type": "bool"
        }
      ],
      "name": "setApprovalForAll",
      "outputs": [],
      "stateMutability": "nonpayable",
      "type": "function"
    },
    {
      "inputs": [
        {
          "internalType": "bytes4",
          "name": "interfaceId",
          "type": "bytes4"
        }
      ],
      "name": "supportsInterface",
      "outputs": [
        {
          "internalType": "bool",
          "name": "",
          "type": "bool"
        }
      ],
      "stateMutability": "view",
      "type": "function"
    },
    {
      "inputs": [],
      "name": "symbol",
      "outputs": [
        {
          "internalType": "string",
          "name": "",
          "type": "string"
        }
      ],
      "stateMutability": "view",
      "type": "function"
    },
    {
      "inputs": [
        {
          "internalType": "uint256",
          "name": "tokenId",
          "type": "uint256"
        }
      ],
      "name": "tokenURI",
      "outputs": [
        {
          "internalType": "string",
          "name": "",
          "type": "string"
        }
      ],
      "stateMutability": "view",
      "type": "function"
    },
    {
      "inputs": [],
      "name": "totalAgents",
      "outputs": [
        {
          "internalType": "uint256",
          "name": "",
          "type": "uint256"
        }
      ],
      "stateMutability": "view",
      "type": "function"
    },
    {
      "inputs": [
        {
          "internalType": "address",
          "name": "from",
          "type": "address"
        },
        {
          "internalType": "address",
          "name": "to",
          "type": "address"
        },
        {
          "internalType": "uint256",
          "name": "tokenId",
          "type": "uint256"
        }
      ],
      "name": "transferFrom",
      "outputs": [],
      "stateMutability": "nonpayable",
      "type": "function"
    },
    {
      "inputs": [
        {
          "internalType": "address",
          "name": "newOwner",
          "type": "address"
        }
      ],
      "name": "transferOwnership",
      "outputs": [],
      "stateMutability": "nonpayable",
      "type": "function"
    },
    {
      "inputs": [
        {
          "internalType": "uint256",
          "name": "agentId",
          "type": "uint256"
        },
        {
          "internalType": "string",
          "name": "newAgentDomain",
          "type": "string"
        },
        {
          "internalType": "bytes32",
          "name": "newContentHash",
          "type": "bytes32"
        }
      ],
      "name": "updateAgentCard",
      "outputs": [],
      "stateMutability": "nonpayable",
      "type": "function"
    },
    {
      "inputs": [
        {
          "internalType": "uint256",
          "name": "agentId",
          "type": "uint256"
        },
        {
          "internalType": "string",
          "name": "agentCardJSON",
          "type": "string"
        }
      ],
      "name": "verifyAgentCard",
      "outputs": [
        {
          "internalType": "bool",
          "name": "",
          "type": "bool"
        }
      ],
      "stateMutability": "view",
      "type": "function"
    }
  ],
  "bytecode": "0x60803462000388576001600160401b0390604090808201838111828210176200037257825260118152602091701059d95b9d10985e98585c881059d95b9d607a1b83830152805193818501858110828211176200037257825260058552641051d1539560da1b84860152825181811162000372576000948554916001958684811c9416801562000367575b8385101462000353578190601f9485811162000300575b5083908583116001146200029c57899262000290575b5050600019600383901b1c191690861b1786555b86519283116200027c5784548581811c9116801562000271575b828210146200025d5782811162000215575b5080918311600114620001ac575084958293949592620001a0575b5050600019600383901b1c191690831b1782555b3315620001895760078054336001600160a01b03198216811790925591519390916001600160a01b0316907f8be0079c531659141344cd1fd0a4f28419497f9722a3daafe3b4186f6b6457e09080a380600855600955611d7790816200038e8239f35b51631e4fbdf760e01b815260048101839052602490fd5b01519050388062000112565b90601f198316968587528287209287905b898210620001fd5750508386979896959610620001e3575b505050811b01825562000126565b015160001960f88460031b161c19169055388080620001d5565b808885968294968601518155019501930190620001bd565b8587528187208380860160051c82019284871062000253575b0160051c019086905b82811062000247575050620000f7565b88815501869062000237565b925081926200022e565b634e487b7160e01b87526022600452602487fd5b90607f1690620000e5565b634e487b7160e01b86526041600452602486fd5b015190503880620000b7565b898052848a208994509190601f1984168b5b87828210620002e95750508411620002cf575b505050811b018655620000cb565b015160001960f88460031b161c19169055388080620002c1565b8385015186558c97909501949384019301620002ae565b9091508880528389208580850160051c82019286861062000349575b918a91869594930160051c01915b8281106200033a575050620000a1565b8b81558594508a91016200032a565b925081926200031c565b634e487b7160e01b88526022600452602488fd5b93607f16936200008a565b634e487b7160e01b600052604160045260246000fd5b600080fdfe608080604052600436101561001357600080fd5b60003560e01c90816301ffc9a7146113e85750806306fdde0314611345578063081812fc14611307578063095ea7b3146112205780631047d209146111a05780631bc51e7d146110f757806323b872dd146110e05780632de5aaf71461105757806342842e0e146110295780634aa1124814610fed578063568d390014610fb357806357da92e414610dfa5780636352211e14610dca57806365ea39f214610d2657806370a0823114610ccd578063715018a614610c705780638da5cb5b14610c4757806395d89b4114610b68578063a22cb46514610abd578063a413643b146103f6578063b88d4fde14610389578063c505371214610348578063c87b56dd146102ef578063e68dd34214610221578063e985e9c5146101cb5763f2fde38b1461013d57600080fd5b346101c65760203660031901126101c6576101566114ad565b61015e611645565b6001600160a01b039081169081156101ad57600754826001600160601b0360a01b821617600755167f8be0079c531659141344cd1fd0a4f28419497f9722a3daafe3b4186f6b6457e0600080a3005b604051631e4fbdf760e01b815260006004820152602490fd5b600080fd5b346101c65760403660031901126101c6576101e46114ad565b6101ec6114c3565b9060018060a01b03809116600052600560205260406000209116600052602052602060ff604060002054166040519015158152f35b346101c6576020806003193601126101c65761023b6114ad565b90610244611b69565b506001600160a01b039182166000908152600b8252604090205480156102d657600052600a815260ff60056040600020604051946102818661159c565b815486526001820154168486015261029b600282016116ab565b60408601526003810154606086015260048101546080860152015416151560a08301526102d26040519282849384528301906114d9565b0390f35b604051630ede975960e01b815260006004820152602490fd5b346101c65760203660031901126101c65760043561030c8161194e565b5060005260066020526102d261032560406000206116ab565b6000604051610333816115b7565b5260405191829160208352602083019061146d565b346101c65760003660031901126101c657600954600019810190811161037357602090604051908152f35b634e487b7160e01b600052601160045260246000fd5b346101c65760803660031901126101c6576103a26114ad565b6103aa6114c3565b90604435606435926001600160401b0384116101c657366023850112156101c6576103e26103f494369060248160040135910161160e565b926103ee838383611751565b33611989565b005b346101c65760603660031901126101c6576004356001600160401b0381116101c65761042690369060040161156f565b6044356001600160401b0381116101c65761044590369060040161156f565b600260089392935414610aab5760026008558115610a995760243515610a87578015610a755733600052600b602052604060002054610a5d576009549261048b84611ad7565b60095560405161049a8161159c565b8481523360208201526104ae36858861160e565b60408201526024356060820152426080820152600160a082015284600052600a602052604060002090805182556001820160018060a01b036020830151166001600160601b0360a01b82541617905560408101518051906001600160401b0382116107ce5761052d826105246002870154611671565b60028701611ae6565b602090601f83116001146109e457928260059360a09361059397966000926109d9575b50508160011b916000199060031b1c19161760028501555b60608101516003850155608081015160048501550151151591019060ff801983541691151516179055565b33600052600b602052836040600020556040516105af816115b7565b6000815233156109c0576000858152600260205260409020546001600160a01b03168015159081610989575b3360005260036020526040600020600181540190558660005260026020526040600020336001600160601b0360a01b8254161790558633827fddf252ad1be2c89b69c2b068fc378daa952ba7f163c4a11628f55a4df523b3ef600080a48180610981575b610915575b506108fc57333b6107e4575b5061065c91369161160e565b8260005260066020526040600020938151946001600160401b0386116107ce5785859361069560209861068f8554611671565b85611ae6565b8790601f831160011461073f57918061072494927f437e99a83f99c055028e3dbf2a4f2924f4c79e463b6e42c8903feb814f5f24139694600092610734575b50508160011b916000199060031b1c19161790555b7ff8e1a15aba9398e019f0b49df1a4fde98ee17ae345cb5f6b5e2c27f5033e8ce787604051868152a160405191829133966024359184611b3a565b0390a36001600855604051908152f35b015190508a806106d4565b90601f1983169184600052896000209260005b8181106107b457509260019285927f437e99a83f99c055028e3dbf2a4f2924f4c79e463b6e42c8903feb814f5f2413989661072498961061079b575b505050811b0190556106e9565b015160001960f88460031b161c191690558a808061078e565b8284015185558a9850600190940193928b01928b01610752565b634e487b7160e01b600052604160045260246000fd5b6040516020818061081e630a85bd0160e11b95868352336004840152600060248401528a604484015260806064840152608483019061146d565b03816000335af1600091816108b7575b50610888573d15610881573d610843816115f3565b9061085160405192836115d2565b81523d6000602083013e5b8051908161087c57604051633250574960e11b8152336004820152602490fd5b602001fd5b606061085c565b6001600160e01b0319160361089f5761065c610650565b604051633250574960e11b8152336004820152602490fd5b9091506020813d6020116108f4575b816108d3602093836115d2565b810103126101c657516001600160e01b0319811681036101c657908861082e565b3d91506108c6565b6040516339e3563760e11b815260006004820152602490fd5b80600052600b60205260006040812055336000528660406000205586600052600a6020526001604060002001336001600160601b0360a01b8254161790553390877fd6ba5fac6fb963adac1793479c359f94fa1284132187bb1bd9302880a18a8fc3600080a487610644565b50600161063f565b600087815260046020526040902080546001600160a01b0319169055806000526003602052604060002060001981540190556105db565b604051633250574960e11b815260006004820152602490fd5b015190508c80610550565b906002850160005260206000209160005b601f1985168110610a4557508360a093610593979693600193600597601f19811610610a2c575b505050811b016002850155610568565b015160001960f88460031b161c191690558c8080610a1c565b919260206001819286850151815501940192016109f5565b604051630654cb8760e11b8152336004820152602490fd5b6040516313f04adb60e01b8152600490fd5b6040516368e1d61b60e01b8152600490fd5b60405163296b885f60e21b8152600490fd5b604051633ee5aeb560e01b8152600490fd5b346101c65760403660031901126101c657610ad66114ad565b610ade61152b565b6001600160a01b03909116908115610b4f57336000526005602052604060002082600052602052610b1f8160406000209060ff801983541691151516179055565b60405190151581527f17307eab39ab6107e8899845ad3d59bd9653f200f220920489ca2b5937696c3160203392a3005b604051630b61174360e31b815260048101839052602490fd5b346101c65760003660031901126101c65760405160006001805490610b8c82611671565b80855291818116908115610c205750600114610bc7575b6102d284610bb3818603826115d2565b60405191829160208352602083019061146d565b600081815292507fb10e2d527612073b26eecdfd717e6a320cf44b4afac2b0732d9fcbe2b7fa0cf65b828410610c08575050508101602001610bb382610ba3565b80546020858701810191909152909301928101610bf0565b60ff191660208087019190915292151560051b85019092019250610bb39150839050610ba3565b346101c65760003660031901126101c6576007546040516001600160a01b039091168152602090f35b346101c65760003660031901126101c657610c89611645565b600780546001600160a01b031981169091556000906001600160a01b03167f8be0079c531659141344cd1fd0a4f28419497f9722a3daafe3b4186f6b6457e08280a3005b346101c65760203660031901126101c6576001600160a01b03610cee6114ad565b168015610d0d5760005260036020526020604060002054604051908152f35b6040516322718ad960e21b815260006004820152602490fd5b346101c65760403660031901126101c6576004356024356001600160401b0381116101c657610d5990369060040161156f565b919081600052602092600a845260406000205415610db157610d948460405183819483830196873781016000838201520380845201826115d2565b51902090600052600a825260036040600020015414604051908152f35b604051630ede975960e01b815260048101849052602490fd5b346101c65760203660031901126101c6576020610de860043561194e565b6040516001600160a01b039091168152f35b346101c65760603660031901126101c6576001600160401b036004356024358281116101c657610e2e90369060040161156f565b906044358215610a99578015610a8757610e478461194e565b336001600160a01b0390911603610f945783600052602094600a865260026040600020019084116107ce57610e8684610e808354611671565b83611ae6565b6000601f8511600114610f06577f74c2996bfd3b9438ba2e9c39f9d012c829caed7ad5ea672fc1013e618374a7b79596610ef6939286600a93600091610efb575b508760011b906000198960031b1c19161790555b87600052528060036040600020015560405193849384611b3a565b0390a2005b90508601358a610ec7565b601f1985169082600052876000209160005b818110610f7d575092600a927f74c2996bfd3b9438ba2e9c39f9d012c829caed7ad5ea672fc1013e618374a7b798999288610ef6979610610f63575b5050600187811b019055610edb565b87013560001960038a901b60f8161c191690558980610f54565b91928960018192868a013581550194019201610f18565b6040516304ffad3160e21b815260048101859052336024820152604490fd5b346101c65760203660031901126101c6576001600160a01b03610fd46114ad565b16600052600b6020526020604060002054604051908152f35b346101c65760203660031901126101c6576001600160a01b0361100e6114ad565b16600052600b60205260206040600020541515604051908152f35b346101c6576103f461103a3661153a565b9060405192611048846115b7565b600084526103ee838383611751565b346101c6576020806003193601126101c657600435611074611b69565b5080600052600a8252604060002054156110c857600052600a815260406000209060ff6005604051936110a68561159c565b8054855260018101546001600160a01b03168486015261029b600282016116ab565b60249060405190630ede975960e01b82526004820152fd5b346101c6576103f46110f13661153a565b91611751565b346101c65760403660031901126101c65760043561111361152b565b61111c8261194e565b336001600160a01b03909116036111815760207f5b7fa91ee392647b777096db0d386dc7cb7a3bfbc86ae6a10e0500de3a5ad02f9183600052600a82526111768160056040600020019060ff801983541691151516179055565b6040519015158152a2005b6040516304ffad3160e21b815260048101839052336024820152604490fd5b346101c65760403660031901126101c6576111bf602435600435611bdc565b60405160209182820192808352815180945260408301938160408260051b8601019301916000955b8287106111f45785850386f35b909192938280611210600193603f198a820301865288516114d9565b96019201960195929190926111e7565b346101c65760403660031901126101c6576112396114ad565b6024356112458161194e565b331515806112f4575b806112c7575b6112af576001600160a01b039283169282918491167f8c5be1e5ebec7d5bd14f71427d1e84f3dd0314c0f7b2291e5b200ac8c7c3b925600080a4600090815260046020526040902080546001600160a01b0319169091179055005b60405163a9fbf51f60e01b8152336004820152602490fd5b5060018060a01b038116600052600560205260406000203360005260205260ff6040600020541615611254565b506001600160a01b03811633141561124e565b346101c65760203660031901126101c6576004356113248161194e565b506000526004602052602060018060a01b0360406000205416604051908152f35b346101c65760003660031901126101c6576040516000805461136681611671565b80845290600190818116908115610c20575060011461138f576102d284610bb3818603826115d2565b600080805292507f290decd9548b62a8d60345a988386fc84ba6bc95484008f6362f93160ef3e5635b8284106113d0575050508101602001610bb382610ba3565b805460208587018101919091529093019281016113b8565b346101c65760203660031901126101c6576004359063ffffffff60e01b82168092036101c657602091632483248360e11b811490811561142a575b5015158152f35b6380ac58cd60e01b81149150811561145c575b811561144b575b5083611423565b6301ffc9a760e01b14905083611444565b635b5e139f60e01b8114915061143d565b919082519283825260005b848110611499575050826000602080949584010152601f8019910116010190565b602081830181015184830182015201611478565b600435906001600160a01b03821682036101c657565b602435906001600160a01b03821682036101c657565b908151815260018060a01b03602083015116602082015260a08061150c604085015160c0604086015260c085019061146d565b9360608101516060850152608081015160808501520151151591015290565b6024359081151582036101c657565b60609060031901126101c6576001600160a01b039060043582811681036101c6579160243590811681036101c6579060443590565b9181601f840112156101c6578235916001600160401b0383116101c657602083818601950101116101c657565b60c081019081106001600160401b038211176107ce57604052565b602081019081106001600160401b038211176107ce57604052565b90601f801991011681019081106001600160401b038211176107ce57604052565b6001600160401b0381116107ce57601f01601f191660200190565b92919261161a826115f3565b9161162860405193846115d2565b8294818452818301116101c6578281602093846000960137010152565b6007546001600160a01b0316330361165957565b60405163118cdaa760e01b8152336004820152602490fd5b90600182811c921680156116a1575b602083101461168b57565b634e487b7160e01b600052602260045260246000fd5b91607f1691611680565b90604051918260008254926116bf84611671565b90818452600194858116908160001461172e57506001146116eb575b50506116e9925003836115d2565b565b9093915060005260209081600020936000915b8183106117165750506116e9935082010138806116db565b855488840185015294850194879450918301916116fe565b9150506116e994506020925060ff191682840152151560051b82010138806116db565b916001600160a01b039182169182156109c0576000938285526020936002855260409584848883205416968792331515806118ba575b5083151580611887575b858252600383528a822080546001019055838252600283528a822080546001600160a01b03199081168817909155908487877fddf252ad1be2c89b69c2b068fc378daa952ba7f163c4a11628f55a4df523b3ef8680a48061187f575b611828575b50505050505016928383036118075750505050565b6064945051926364283d7b60e01b8452600484015260248301526044820152fd5b600a7fd6ba5fac6fb963adac1793479c359f94fa1284132187bb1bd9302880a18a8fc393868452600b8152838d812055878452858d852055858452528560018c8420019182541617905580a43884848280806117f2565b5060016117ed565b600084815260046020526040902080546001600160a01b0319169055848252600383528a82208054600019019055611791565b91935091508061190d575b156118d4578691869138611787565b8786886118f1576024915190637e27328960e01b82526004820152fd5b604491519063177e802f60e01b82523360048301526024820152fd5b503387148015611932575b806118c557508581526004825233858983205416146118c5565b5086815260058252878120338252825260ff8882205416611918565b6000818152600260205260409020546001600160a01b0316908115611971575090565b60249060405190637e27328960e01b82526004820152fd5b90939192833b61199b575b5050505050565b604051630a85bd0160e11b8082526001600160a01b0393841660048301529583166024820152604481019190915260806064820152949216926020929185906119e890608483019061146d565b039483816000978189895af1869181611a93575b50611a5d575050503d600014611a54573d611a16816115f3565b90611a2460405192836115d2565b81528093823d92013e5b82519283611a4f57604051633250574960e11b815260048101849052602490fd5b019050fd5b60609250611a2e565b919450915063ffffffff60e01b1603611a7b57503880808080611994565b60249060405190633250574960e11b82526004820152fd5b9091508481813d8311611ad0575b611aab81836115d2565b81010312611acc57516001600160e01b031981168103611acc5790386119fc565b8680fd5b503d611aa1565b60001981146103735760010190565b90601f8111611af457505050565b600091825260208220906020601f850160051c83019410611b30575b601f0160051c01915b828110611b2557505050565b818155600101611b19565b9092508290611b10565b9392918060609160209360408852816040890152838801376000828288010152601f8019910116850101930152565b60405190611b768261159c565b600060a083828152826020820152606060408201528260608201528260808201520152565b6001600160401b0381116107ce5760051b60200190565b8051821015611bc65760209160051b010190565b634e487b7160e01b600052603260045260246000fd5b600954909160001982019182116103735781831015611d2b5782019081831161037357808211611d23575b5081810381811161037357611c1b81611b9b565b92604091611c2b835195866115d2565b808552611c3a601f1991611b9b565b0160005b818110611d0c575050600091600191828101809111611cf857925b84841115611c6957505050505090565b611cec611cf291856000526020600a815260ff600586600020875193611c8e8561159c565b81548552898201546001600160a01b031690850152611caf600282016116ab565b888501526003810154606085015260048101546080850152015416151560a0820152611cdb828a611bb2565b52611ce68189611bb2565b50611ad7565b93611ad7565b92611c59565b634e487b7160e01b84526011600452602484fd5b602090611d17611b69565b82828901015201611c3e565b905038611c07565b505050604051611d3a816115b7565b600081529056fea26469706673582212206f0bb12ca5f87d41964581ed1ea39eda4383c752c6457f8b25f494c273a5186464736f6c63430008140033",
  "linkReferences": {},
  "deployedLinkReferences": {}
}